:100000000C9493010C94C4010C94C4010C94C4018D
:100010000C94C4010C94C4010C94C4010C94C4014C
:100020000C94C4010C94C4010C94C4010C94C4013C
:100030000C94C4010C94C4010C94C4010C94C4012C
:100040000C94C4010C94681D0C94C4010C94C4015C
:100050000C94C4010C94C4010C94C4010C946F2141
:100060000C94C4010C94FD1E0C94331F0C94C40119
:100070000C94C4010C94C4010C94C4010C94C401EC
:100080000C94C4010C94C4010C94C4010C94C401DC
:100090000C94C4010C94C4010C94C4010C94C401CC
:1000A0000C94C4010C94C4010C94C4010C94C401BC
:1000B0000C94C4010C94C4010C94C4010C94C401AC
:1000C0000C94C4010C94C4010C94C4010C94C4019C
:1000D0000C94C4010C94C4010C94C4010C94C4018C
:1000E0000C94C401DC04EB04F60405052405370573
:1000F00040058905A805B705D205FF0576069506D2
:1001000002077307A407A322A622952299229F2201
:10011000DD22AA22AE22B422B822BC22C222C622EA
:10012000CA22DD22D022D422D82205A84CCDB2D4B6
:100130004EB93836A9020C50B9918688083CA6AA57
:10014000AA2ABE000000803F0C9437050C94F913D6
:100150000C9476060C945D1F0C94A4070C94AA22B0
:100160000C9405050C94D8220C94AE220C94D42245
:100170000C94F6040C94B8220C94A8050C94C62296
:100180000C94CF130C94DD220C94BC220C94A41F6D
:100190000C949F220C942F1E0C94EB040C94890554
:1001A0000C9495060C94D11D0C94E7130C94A31D8C
:1001B0000C94F1010C94C2220C94A6220C947307A7
:1001C0000C94B7050C94CA220C94FF050C94D2052C
:1001D0000C94BD1D0C94EE010C94AF1B0C94671F86
:1001E0000C94AF1D0C9402070C94B4220C9440059F
:1001F0000C94EA010C94511E0C94DC040C94D02253
:100200000C94B1130C9424050C94DB130C949922D8
:100210000C94A3220C94952200000A0B02090C0DE9
:100220000E080703040100000000000000000000A9
:1002300000000000000000000000000000000000BE
:10024000000000001211100000000000000000007B
:10025000000000000000000000000000000001029B
:1002600010202008081020401020408002010201C8
:100270000804020101020408102040808040201080
:1002800008040201800402018040201008040201D9
:100290000804020101020408102040800102040841
:1002A000102040800505050507050808080802021A
:1002B00002020A0A08080404040401010101010100
:1002C00001010303030303030303040707070C0CE3
:1002D0000C0C0C0C0C0C02020202060606060606AA
:1002E00006060B0B0B0B0B0B0B0B00002200250063
:1002F00028002B002E00310034000201000005010F
:1003000008010B0100002100240027002A002D0015
:100310003000330001010000040107010A01E71366
:10032000AF1B671FF91311241FBECFEFD1E2DEBF51
:10033000CDBF00E00CBF12E0A0E0B2E0EAE6F2E5DB
:1003400000E00BBF02C007900D92AE39B107D9F79C
:1003500029E0AEE9B2E001C01D92A43EB207E1F788
:1003600011E0C2E9D1E000E006C021970109802F29
:10037000FE010E946426CF38D10780E00807A9F764
:100380000E94951F0C9423290C940000FC012081ED
:10039000222321F0269F212D09F02F5F208308952D
:1003A000609114027091150245E058E0649F90013D
:1003B000659F300D749F300D1124275E394C3093AA
:1003C000150220931402230F382F239F212D11246F
:1003D000822F0895FC0185859685089580E991E036
:1003E00008956D9A08956115710579F0FB010190EA
:1003F0000020E9F73197AF01461B570BDC01ED9167
:10040000FC910280F381E02D199480E090E0089542
:10041000FC01DB013C912081230F08F42FEF2083A6
:1004200011963C9111972181230F08F42FEF21831E
:1004300012963C912281230F08F42FEF2283089516
:100440008F929F92AF92BF92CF92DF92EF92FF92E4
:10045000CF93DF93FC0182859385892B09F461C0DA
:1004600082819381181619060CF042C0EF01648551
:100470007585072E000C880B990B0E9462246B0176
:100480007C010E94B9210E94602420E030E84BE307
:1004900055E40E94B8234B015C0188859985BC0115
:1004A000990F880B990B0E9462249B01AC01C50136
:1004B000B4010E94EE240E945B254B015C018A81FD
:1004C0009B81BC01990F880B990B0E9462249B01B0
:1004D000AC01C501B4010E94EE249B01AC01C7012F
:1004E000B6010E944C230E942A247983688319C094
:1004F000468157818085918520813181452B29F462
:10050000A901481B590BCA0102C0820F931F918396
:100510008083808191810197883E934010F01386FB
:100520001286DF91CF91FF90EF90DF90CF90BF9038
:10053000AF909F908F900895CF93DF93EC017983D4
:10054000688328EC30E040E050E068E37FEF8FEF15
:100550009FEF0E94FB1F798768872FEF30E03B8376
:100560002A8321E030E03F832E839B0177FF04C084
:1005700022273327261B370B8CED90E0821B930B31
:100580009D838C83DF91CF910895CF92DF92EF927C
:10059000FF920F931F93CF93DF93FC017B01868122
:1005A0009781892B09F470C004811581C8010196D7
:1005B00095838483C085D1851C161D061CF466EFC7
:1005C0007FEF02C06AE070E00E940F26CE01860F26
:1005D000971F91878087EF2851F080819181853F17
:1005E00091402CF0808591850A979187808783E6DA
:1005F00090E0801B910B93838283181619061CF0E0
:100600001782168241C08F01C085D18560817181BA
:10061000072E000C880B990B0E9462246B017C0151
:10062000BE010D2E000C880B990B0E94622420E065
:1006300030E040EE50E40E94B8239B01AC01C701BA
:10064000B6010E944C230E942A24693E43E07407AD
:1006500034F088EE93E0F8019183808308C0F801BC
:1006600077FD03C0718360830FC0118210829E01E9
:10067000D7FF02C02F5F3F4F3595279531952195C4
:100680003109F80131872087DF91CF911F910F91B8
:10069000FF90EF90DF90CF900895FC01228133818D
:1006A00021503109338322832115310511F416823B
:1006B00008952230310519F488EC90E005C021300E
:1006C000310521F488E592E0918380830895EF92CB
:1006D000FF920F931F93CF93DF938091BA02909173
:1006E000BB028230910529F0019731F4C4E1D5E0D5
:1006F00005C0C0E4D6E002C0C4E3D8E08091B802EF
:100700009091B9029093160380931503D093180328
:10071000C093170383E0E82EF12CF0921A03E092C5
:10072000190310921C0310921B030E94B9216093BD
:10073000210370932203809323039093240301E009
:1007400010E010932603009325038091B802909146
:10075000B9029093280380932703D0932A03C09370
:100760002903F0922C03E0922B0310932E030093A5
:100770002D030E94B9216093330370933403809357
:100780003503909336031093380300933703DF91BA
:10079000CF911F910F91FF90EF900895E8EBF2E059
:1007A00080E293E09183808383E090E0938382836F
:1007B00081E086830C946703CF93DF93E9ECF4E048
:1007C000A0E0B0E0C285D385CD2B69F5CEE0CA9F0D
:1007D000F001CB9FF00D1124E753FB4F91838083F1
:1007E0007783668333832283958784875187408705
:1007F00021E030E03387228720915D0530915E054E
:10080000281739071CF08FEF9FEF02C081E090E0BE
:100810002EE02A9FF0012B9FF00D1124E753FB4F90
:100820009583848305C011963E96AA30B10551F692
:10083000DF91CF910895EF92FF920F931F93CF9383
:10084000DF93ADECB2E0E0E0F0E05096CD91DC91CA
:100850005197CD2B49F5A2E1AE9FE001AF9FD00D9E
:100860001124C353DD4F998388837B836A835D831F
:100870004C833F832E831987088781E090E0998B12
:10088000888B0E94B921012E000C220B330BDC0156
:10089000CB01801B910BA20BB30B8A879B87AC8784
:1008A000BD87FF86EE8605C031965296E430F1058D
:1008B00061F6DF91CF911F910F91FF90EF90089516
:1008C0002091C502222339F02091CC02211115C0BC
:1008D00021E030E002C020E030E0A7E0A29FF0017C
:1008E000A39FF00D1124E154FD4F91838083738306
:1008F00062835583448381E086830895E9ECF4E0C4
:10090000138612863E9685E0E535F807C9F7E9E3D8
:10091000F3E0178216823A9684E0E93CF807C9F7BB
:10092000109226031092250310921D0310921E03AD
:1009300010921F0310922003109238031092370375
:1009400010922F0310923003109231031092320351
:100950001092DE021092DD021092F0021092EF026D
:1009600010920203109201031092140310921303C9
:100970001092C5021092CC021092BE020895EF921E
:10098000FF920F931F93CF93DF930E947E041092E8
:100990005E0510925D0581E080935A05E09178052F
:1009A000F0917905E131F10508F0D0C28827EE58C1
:1009B000FF4F8F4F0C94642688EC90E090935E0577
:1009C00080935D0520E030E040E050E060E070E0C2
:1009D00081E090E008C020E030E041E050E060E0DD
:1009E00070E084E893E00E94DC03B0C288EE93E0FC
:1009F000909316038093150388EB9BE09093180364
:100A00008093170382E090E055C2F0E2EF2EF2E00F
:100A1000FF2E00E010E020ED37E040ED57E06AEEF9
:100A200071E080E991E00E941B0488EE93E09093CE
:100A30001603809315038CE795E190931803809338
:100A4000170383E090E036C223E131E047E050E055
:100A500061E070E08CEB92E00E94DC032AEF30E072
:100A600045E050E061E070E084EF91E0BCCF4FEFF3
:100A70005FEF68E572E084E690E00E94600461C088
:100A800041E050E068EE73E082E390E00E94600491
:100A900020E030E040E050E060E070E08CE291E087
:100AA0000E94DC0320E030E040E050E060E070E0D5
:100AB00080E991E00E94DC0320E030E040E050E07B
:100AC00060E070E084EF91E00E94DC0320E030E021
:100AD00040E050E060E070E088E592E00E94DC03D6
:100AE00020E030E040E050E060E070E08CEB92E02D
:100AF0000E94DC0320E030E040E050E060E070E085
:100B000080E293E00E94DC0320E030E040E050E02F
:100B100066CF4FEF5FEF68E572E088EC90E00E94EF
:100B20006004E0E2EE2EE2E0FE2E00E010E020EDB8
:100B300037E04CED55E066EC72E089E592E00E940A
:100B40001B0420E030E040E050E060E070E0F9C1DC
:100B500070E2E72E72E0F72E00E010E020EF3AE0BE
:100B600048EE53E060E273E083EC90E0DBC023E109
:100B700031E047E050E061E070E08CEB92E00E94F1
:100B8000DC032AEF30E045E050E061E070E084EF04
:100B900091E00E94DC034FEF5FEF64E873E084E6CE
:100BA00090E0A1C060E2E62E62E0F62E00E010E0E8
:100BB00020ED37E040ED57E06CE271E083EC90E02F
:100BC0000E941B0420ED37E040ED57E067EC71E038
:100BD0008EE591E00E941B0420ED37E040ED57E0E8
:100BE00062E672E08EEF91E00E941B0420ED37E098
:100BF00040ED57E068EF72E084E992E04BC123E1F9
:100C000031E047E050E061E070E08CEB92E00E9460
:100C1000DC032AEF30E045E050E061E070E084EF73
:100C200091E00E94DC0388EE93E09093160380939A
:100C300015030CE715E1109318030093170384E0E4
:100C400090E090931A038093190310921C03109262
:100C50001B030E94B921DC01CB018854944FAF4F94
:100C6000BF4F8093210390932203A0932303B0935B
:100C70002403C1E0D0E0D0932603C0932503109253
:100C800028031092270310932A030093290385E079
:100C900090E090932C0380932B03D0932E03C0936A
:100CA0002D030E94B921DC01CB01805F984DAF4F2D
:100CB000BF4F8093330390933403A0933503B093D5
:100CC0003603D0933803C09337034FEF5FEF6CE2E6
:100CD00071E084E690E00E94600441E050E068E545
:100CE00072E08DE291E00E94600430C144E2E42EA3
:100CF00042E0F42E00E010E020EF3AE048EE53E04E
:100D000060E971E08EE690E00E941B0450E2E52E5F
:100D100052E0F52E20EF3AE048EE53E06DE473E048
:100D200085E991E00E941B0411C190E2E92E92E056
:100D3000F92E00E010E020EF3AE048EE53E068ECD6
:100D400070E08EE690E00E941B0424E2E22E22E096
:100D5000F22E20EF3AE048EE53E068E572E08EEFC5
:100D600091E00E941B0438EEE32E33E0F32EF09264
:100D70001603E092150300E81CE01093180300939B
:100D8000170385E090E090931A0380931903109263
:100D90001C0310921B030E94B921609321037093DE
:100DA00022038093230390932403C1E0D0E0D093E7
:100DB0002603C0932503F0922803E09227031093A3
:100DC0002A030093290384E090E090932C038093FE
:100DD0002B0310922E0310922D030E94B921DC01E7
:100DE000CB01845D9E4FAF4FBF4F809333039093F1
:100DF0003403A0933503B0933603D0933803C093E4
:100E00003703A4C023E131E047E050E061E070E047
:100E10008CEB92E00E94DC032AEF30E045E050E0EA
:100E200061E070E084EF91E00E94DC0380E2E82E54
:100E300082E0F82E00E010E020ED37E040ED57E0D2
:100E40006CE271E083EC90E00E941B044FEF5FEFD7
:100E500060E571E080E391E00E94600420ED37E0FE
:100E600040ED57E067EC71E084E591E00E941B04DF
:100E700020ED37E040ED57E062E672E084EF91E06C
:100E80000E941B0420ED37E040ED57E068EF72E070
:100E90008AE892E00E941B0488EE93E09093160388
:100EA0008093150388ED9EE09093180380931703B9
:100EB00084E090E090931A038093190310921C032E
:100EC00010921B030E94B9216093210370932203A7
:100ED000809323039093240381E090E09093260372
:100EE0008093250333C023E131E047E050E061E027
:100EF00070E08CEB92E00E94DC032AEF30E045E0EA
:100F000050E061E070E084EF91E00E94DC032FEAA2
:100F100030E047E050E061E070E080E991E00E945D
:100F2000DC0324E630E045E050E061E070E08CE274
:100F300091E00E94DC0324E630E049E050E061E00B
:100F400070E080E293E04FCD0E94CE030E94B92171
:100F500060935F05709360058093610590936205CF
:100F600087E292E09093640580936305DF91CF91CF
:100F70001F910F91FF90EF90089526E040E855E211
:100F800060E070E08AE399E00E94981E62E370E0FE
:100F900087E895E00E948F2062E370E081E895E0A9
:100FA0000E948F2062E370E08BE795E00E948F2023
:100FB000F894109280001092810088E09DE3909355
:100FC00089008093880080918100886080938100EF
:100FD0008091810081608093810080918100846094
:100FE0008093810080916F00826080936F0078947D
:100FF0008091B002811145C01092A2021092A1020C
:101000008FEF8093A5028093A6028093A70280931E
:10101000A8028093A9028093AA0281E08093AB0288
:101020001092AD021092AC021092A4021092A30290
:101030008091270990912809892B31F48FE992E05A
:101040009093280980932709E0912509F0912609BA
:10105000309721F08FE992E0958384838FE992E0C5
:1010600090932609809325091092AF021092AE0248
:1010700081E892E09093A00280939F0281E08093A8
:10108000B00220E030E04FE251E06DE875E08FE91A
:1010900092E00E94A019809112028093290961E0D8
:1010A00089E299E00E941A1A60E086E10E941A2300
:1010B00061E086E10E94DE220C94BF040E94B92107
:1010C00060935F057093600580936105909362055E
:1010D0008CE292E09093640580936305809178059B
:1010E00090917905409731F480E392E09093640504
:1010F0008093630583E090E090930F0280930E024B
:1011000008958091780590917905019690937905DD
:101110008093780569E372E08AE399E00E94F30125
:1011200010925C0510925B0580917805909179058D
:10113000419724F010927905109278050C94BF0421
:10114000CF93DF936FE372E08AE399E00E94F301AB
:1011500010925A0510925C0510925B0580917805FB
:1011600090917905181619064CF480910E02909111
:101170000F02019790930F0280930E0280910E024E
:1011800090910F02892B51F41092790510927805F5
:1011900083E090E090930F0280930E02C9E3D3E0C6
:1011A00060915D0570915E05CE010E949C022A96B9
:1011B00084E0C93CD807A1F70E94B92160935F057C
:1011C00070936005809361059093620584E492E0DA
:1011D00090936405809363050E94B921609355053F
:1011E000709356058093570590935805DF91CF91E2
:1011F0000895CF93DF93C0910E02D0910F021C1679
:101200001D064CF56091120270911302072E000C1E
:10121000880B990B0E9462242AE939E949E15FE3CE
:101220000E94EE240E94312410929305609394054D
:1012300010929505C130D10571F010929005609320
:10124000910510929205229731F010928D056093CE
:101250008E0510928F05DF91CF9108958091BE0287
:10126000811108C08091120210921709109218097A
:10127000809319090895CF92DF92EF92FF92CF9356
:10128000DF930E94B9216B017C01C5E1D3E088891D
:101290009989892B01F18C859D85AE85BF858C153B
:1012A0009D05AE05BF05BCF4488559856A857B85DB
:1012B0008A819B81092E000CAA0BBB0B840F951F02
:1012C000A61FB71F8C159D05AE05BF0584F0452BE5
:1012D000462B472B61F0629683E0C933D807B9F6F5
:1012E000DF91CF91FF90EF90DF90CF9008954C81E8
:1012F0005D816E817F8120E030E0888199810E944C
:10130000DC03C886D986EA86FB86E5CF4F925F92DA
:101310006F927F92AF92BF92CF92DF92EF92FF9245
:101320000F931F93CF93DF932C01990F66087708D3
:101330001F921F92D1E0DF93CEE2CF93A12CB12C6C
:10134000650118EEE12E13E0F12E00E010E020E040
:1013500030E0A901C301B2010E941D200F900F903F
:101360000F900F90633071051CF11F921F92DF9355
:10137000CF9320E030E0A901C301B2010E941D20FB
:101380000F900F900F900F906F327140A4F41F9246
:101390001F92DF93CF9320E030E0A901C301B20197
:1013A0000E941D20CB010F900F900F900F9005C051
:1013B00083E090E002C08EE291E0DF91CF911F9137
:1013C0000F91FF90EF90DF90CF90BF90AF907F9004
:1013D0006F905F904F900895EF92FF920F931F933D
:1013E000CF93DF938091BE02882309F4DEC0809101
:1013F000BC029091BD0201969093BD028093BC0205
:101400008091B8029091B90244970E9486098C019C
:10141000EC01CC0FDD1FC00FD11FC157DA4F8091F7
:10142000B8029091B90244960E94860980179107EC
:10143000D4F0CE01029720911202FC012083FE011C
:1014400012927F01188264E60E94C60164E6C70119
:101450000E94C60164E6CE010E94C60111240F5FFE
:101460001F4F2396DCCF80915D0590915E050E9411
:101470008609EC018091B8029091B90244970E94CC
:1014800086098C179D07CCF480915D0590915E05CF
:101490000E948609EC018091B8029091B902889669
:1014A0000E948609C817D90744F4DF91CF911F9194
:1014B0000F91FF90EF900C94A00880916505882310
:1014C00009F473C080915D0590915E054E960E946F
:1014D0008609EC018091B8029091B90244970E946C
:1014E0008609C817D907A4F480915D0590915E051F
:1014F0004E970E948609EC018091B8029091B90242
:1015000044960E9486098C179D070CF44EC013C0A8
:1015100080915D0590915E054E960E948609EC01D2
:101520008091B8029091B90244960E9486098C1766
:101530009D079CF4D9CF80915D0590915E054E97F3
:101540000E948609EC018091B8029091B9024497FB
:101550000E948609C817D90744F188EB92E00E94DF
:101560004D038091BE02882341F0DF91CF911F91FE
:101570000F91FF90EF900C94670310922603109246
:10158000250310921D0310921E0310921F03109248
:101590002003109238031092370310922F031092F9
:1015A00030031092310310923203DF91CF911F91DB
:1015B0000F91FF90EF900895CF93C0911202809108
:1015C0005D0590915E050E948609FC01EE0FFF1FEC
:1015D0008E0F9F1FFC01E357FA4F1082C1831282C6
:1015E000CF9108952F923F924F925F926F927F9288
:1015F0008F929F92AF92BF92CF92DF92EF92FF9223
:101600000F931F93CF93DF93CDB7DEB7AF970FB68E
:10161000F894DEBF0FBECDBF0E94B9214B015C0123
:101620006DEC262E62E0362E85E00E94D001182F48
:10163000F101DE01119682E101900D928A95E1F7A8
:10164000D1010D90BC91A02DBFA7AEA7F1010280E2
:10165000F381E02DFDA7ECA7D10114960D90BC916C
:10166000A02DBBA7AAA7F1010680F781E02DF9A75D
:10167000E8A7D1011A964D905D906D907C901D97D2
:101680001E96ED91FC911F97FC8BEB8B50962D9144
:101690003C9151973FA32EA3232B09F404C1C12EE3
:1016A000D12C8EA59FA50E9486097C018CA59DA5A5
:1016B0000E9486099DA38CA34B895C8940525240AD
:1016C00009F07BC0E8A5F9A5CF01FF0FAA0BBB0B62
:1016D000840D951DA61DB71D88159905AA05BB0586
:1016E00034F42401350124E232E03C8B2B8B8091D1
:1016F0001202909113026AE070E00E940F2685E0CA
:10170000860F810F8D8BC701880F991FAC014E0D7D
:101710005F1D5F8B4E8B00E010E0CB01770FAA0BB3
:10172000BB0B8C8F9D8FAE8FBF8F93E0C90ED11CEA
:101730009601DD0C440B550B28A339A34AA35BA3E8
:10174000ECA1FDA1EE15FF050CF4ADC08E899F89BB
:10175000800F911FAC0143575A4F6A01ED89DA019E
:10176000EC936C8D7D8D8E8D9F8D0E946224688F91
:10177000798F8A8F9B8F68A179A18AA19BA10E94F2
:10178000622420E030E040EC5FE30E94B8239B013C
:10179000AC01688D798D8A8D9B8D0E944C230E94AF
:1017A0003124D60111966C93119712961C92BFEFBB
:1017B000EB1AFB0A0D5F1F4FC3CF2B893C892452C4
:1017C000324009F070C0EAA5FBA5CF01FF0FAA0BBC
:1017D000BB0B840D951DA61DB71D88159905AA057F
:1017E000BB0534F42401350120E232E03C8B2B8B25
:1017F0008091120290911302180F1D8B9701220FF6
:10180000331FA9014E0D5F1D5F8B4E8B00E010E072
:101810009C01990F440B550B2C8F3D8F4E8F5F8F82
:10182000C601DD0CAA0BBB0B88A399A3AAA3BBA37B
:10183000ECA1FDA1EE15FF05B4F18E899F89800F03
:10184000911FDC01A357BA4F6D01ED89EC936C8DAC
:101850007D8D8E8D9F8D0E94622423E333E343E3CD
:101860005FE30E94EE24688F798F8A8F9B8F68A137
:1018700079A18AA19BA10E9462249B01AC01688D81
:10188000798D8A8D9B8D0E944C230E943124D60134
:1018900011966C93119712961C92BFEFEB1AFB0AEC
:1018A0000D5F1F4FC5CF2EA53FA53A8329834CA5B9
:1018B0005DA55C834B838AA59BA59E838D83A8A58C
:1018C000B9A5B887AF834B865C866D867E86EB892B
:1018D000FC89F88BEF872EA13FA13A8B298BFE0163
:1018E0003196D10182E101900D928A95E1F732E1C2
:1018F000230E311C45E1241643E0340609F094CE52
:10190000AF960FB6F894DEBF0FBECDBFDF91CF917B
:101910001F910F91FF90EF90DF90CF90BF90AF900D
:101920009F908F907F906F905F904F903F902F90FF
:1019300008950F931F93CF93DF9300D0CDB7DEB7F9
:1019400009E313E080E0F80126813781232B49F178
:1019500060E070E0C8010E94C502F8012281338175
:101960004091120250911302B901675F7F4F80814D
:101970009181641775071CF4265F298301C0498390
:101980001A821B820E9486099C01220F331F820F3C
:10199000931FBE016F5F7F4F83579A4F0E940802CB
:1019A00081E0065F1F4FF4E0093C1F0761F60F90CE
:1019B0000F900F90DF91CF911F910F9108952F926B
:1019C0003F924F925F926F927F928F929F92AF92CF
:1019D000BF92CF92DF92EF92FF920F931F93CF931C
:1019E000DF93CDB7DEB72B970FB6F894DEBF0FBEEF
:1019F000CDBF0E94B921605F784D8F4F9F4F24E685
:101A000030E040E050E00E94452629013A012FEBEA
:101A100032E03B872A87EA85FB858681882309F4A3
:101A2000BBC084809580808191810E9486095C0181
:101A3000EA85FB85828193810E9486091C01809141
:101A400012029091130266E070E00E940F266983F3
:101A50008501000F111F0A0D1B1D01571A4FC12CC4
:101A6000D12C7601C5010B2C000CAA0BBB0B9C01E1
:101A7000AD01240D351D461D571D2A833B834C8324
:101A80005D83882799278A199B09092E000CAA0BC8
:101A9000BB0B9C01AD01240D351D461D571D2E832A
:101AA0003F8348875987C5018C199D098215930585
:101AB0000CF041C03FEF8316930649F06E817F81A1
:101AC000888599856C0D7D1D8E1D9F1D08C06A81BE
:101AD0007B818C819D816C197D098E099F0925E090
:101AE00030E040E050E00E94452645E050E0461BD3
:101AF000570BBA01072E000C880B990B0E94622429
:101B000020E030E040E05FE30E94EE240E942A24BF
:101B10001616170644F4F801329710823196108297
:101B20002981F80120830D5F1F4F31E0C31AD108CE
:101B3000E108F108B8CF80915D0590915E05EA85D6
:101B4000FB85208131812817390704F522813381F3
:101B500082179307DCF48091590581111DC0F1E0D3
:101B6000F0935905EA85FB8584819581019739F4C5
:101B700023E030E030935C0520935B050DC04DEF12
:101B80005FEF50935C0540935B0506C010925905CA
:101B900010925C0510925B058A859B8507969B8752
:101BA0008A878D5C924009F036CF2B960FB6F89459
:101BB000DEBF0FBECDBFDF91CF911F910F91FF9080
:101BC000EF90DF90CF90BF90AF909F908F907F90DD
:101BD0006F905F904F903F902F9008953F924F925B
:101BE0005F926F927F928F929F92AF92BF92CF92AD
:101BF000DF92EF92FF920F931F93CF93DF93809129
:101C00006505882309F4ADC0A0901202B0901302BC
:101C10000B2C000CCC08DD080E94B9210091660550
:101C2000109167052091680530916905601B710B63
:101C3000820B930B1F921F921F9225E02F9312ECA1
:101C4000E12EFF24F39400E010E020E030E0A90151
:101C50000E941D20362EC62ED72E80915D059091B4
:101C60005E054E970E9486098C010F5F1F4F4C0145
:101C7000880C991C880E991E0F900F900F900F9052
:101C8000A12CB12C0D2C000CEE08FF0880915D05F5
:101C900090915E054E960E9486090817190734F543
:101CA000C701B6010E9462242B013C01E501C80D69
:101CB000D91DC357DA4F2DEC3CEC4CEC5EE30E948F
:101CC000EE240E9431246B831C822DEC3CEC4CE40E
:101CD0005FE3C301B2010E94EE240E9431246D83B0
:101CE0000F5F1F4F83E0A80EB11CD0CFC09112022E
:101CF00080915D0590915E050E948609FC01EE0FC2
:101D0000FF1F8E0F9F1FFC01E357FA4F1082C18304
:101D10001282C091120280915D0590915E054E97EE
:101D20000E948609FC01EE0FFF1F8E0F9F1FFC0112
:101D3000E357FA4FC0833182C283C091120280916F
:101D40005D0590915E054E960E948609FC01EE0F9E
:101D5000FF1F8E0F9F1FFC01E357FA4FC083318294
:101D6000C283DF91CF911F910F91FF90EF90DF9091
:101D7000CF90BF90AF909F908F907F906F905F902B
:101D80004F903F900895EDECF2E020813181428147
:101D9000538166857785A089B189AB2B31F0645278
:101DA000724019F4281739073CF0729623E0E531A8
:101DB000F20759F780E0089584179507B4F781E09A
:101DC00008957F928F929F92AF92BF92CF92DF92AF
:101DD000EF92FF920F931F93CF93DF9300D0CDB775
:101DE000DEB70E94B9214B015C010DE815E0FFE868
:101DF000EF2EF5E0FF2ED701A8013FEFFA01208179
:101E0000239F212D2083FD012291239F212D2083BB
:101E10002C91239F212D2C9311244D5F5F4F1396FE
:101E2000F9E04A315F0751F7809110029091110259
:101E30008330910509F4A4C07CF481309105A1F0B0
:101E4000029709F048C1C501B4010E94CF1F65E0A7
:101E5000A62E68E0B62E75C08430910509F4B0C096
:101E6000059709F4EEC037C1C501B4012AEF30E08F
:101E700040E050E00E944526CA01B9012AE030E066
:101E800040E050E00E9445266B01C501B4010E946C
:101E9000622420E030E44CE955E40E94B8230E941B
:101EA0005B2520E030E040E85FE30E944C2320E027
:101EB00030E044E052E40E94EE2420E030E040EACA
:101EC00051E40E944C230E942A24B62EE12CF12CCE
:101ED0007AE0872E912CAA24AA94E6E97E2EC701E7
:101EE000B4010E940F268C159D0541F4B982AA8287
:101EF0007B82B801CE0101960E94C91B2FEFE21A26
:101F0000F20A0D5F1F4F3FE2E31631E0F30639F7A7
:101F1000E2C082E00E94D00190911202F701319755
:101F2000D80181112AC09C939083F70190830D5FA3
:101F30001F4FF3E0EF0EF11C29E00A31120709F4FC
:101F4000CAC080911402909115028A9D90018B9DC8
:101F5000300D9A9D300D1124275E394C30931502B7
:101F600020931402A0E2B3E00E946C26AA27BB27AC
:101F7000892B8A2B8B2BD9F6CCCF1C921082D5CFF4
:101F800080911202909113029C0197FF02C0295F79
:101F90003F4F43E0359527954A95E1F765E070E0BE
:101FA0000E940F2680E090E0FC01E357FA4F608327
:101FB0006183228303968D3833E09307A9F78BC0A2
:101FC000E0910C02F0910D02CF0105978B32914008
:101FD00058F080910A0290910B0291958195910998
:101FE00090930B0280930A0220910A0230910B0217
:101FF000E20FF31F4091120290911302842F65E0CB
:1020000070E00E940F26DF01AA0FBB1FAE0FBF1F9B
:10201000A357BA4F6C9311966C93119712964C93E9
:10202000E20FF31FF0930D02E0930C02CF01880F33
:10203000991FE80FF91FE357FA4F608361834283CA
:102040004AC0C501B4010E94CF1FE0911402F09173
:1020500015028091120290911302AC0197FF02C009
:10206000495F5F4F73E0559547957A95E1F7542F97
:1020700097FD019695958795482F00E010E065E063
:10208000E62E68E0F62EEE9DC001EF9D900DFE9DC0
:10209000900D1124FC01E75EF94C9F01A0E9B1E02D
:1020A0000E946C26AA27BB27892B8A2B8B2B49F4ED
:1020B000D801A357BA4F4C9311964C93119712968F
:1020C0005C930D5F1F4F0D38B3E01B07E1F6F093F3
:1020D0001502E09314020F900F900F90DF91CF91B3
:1020E0001F910F91FF90EF90DF90CF90BF90AF9036
:1020F0009F908F907F900895EF920F931F93EE24FF
:10210000E39408EE13E020E030E045E060ED77E096
:1021100080E090E00E94971C1F910F91EF9008952E
:102120001F93CF93DF93C9ECD4E08A859B85892BDD
:1021300009F459C0CE010E942002809165058823D0
:10214000A1F080915D0590915E0528813981AC01F7
:102150004D5151092417350744F04D9682179307C6
:1021600024F01B861A860E947C10888199810E9427
:10217000C30E882321F01B861A860E947C108A8554
:102180009B85892B89F010911202888199810E9488
:102190008609FC01EE0FFF1F8E0F9F1FFC01E35706
:1021A000FA4F1083118212828C819D8181309105BA
:1021B00051F42881398180915D0590915E058217E7
:1021C00093078CF00BC0019671F4288139818091BE
:1021D0005D0590915E05281739072CF0DF91CF91AE
:1021E0001F910C94A0082E9685E0C535D80709F0FC
:1021F0009CCFDF91CF911F9108958F929F92AF92C4
:10220000BF92CF92DF92EF92FF920F931F93CF93E3
:10221000DF93FC01A080B1803EB13062932E9EB16D
:102220009F7D9EB950858581052F081B802F0583D2
:102230008584A281B38143857285C485F480E6805C
:10224000D7811185C080D180F6012181222319F028
:10225000200F08F42FEF249F212D1124F501B12C1C
:102260000B2D3B2D6B2D002C9EB800C027FF9EB977
:1022700060810027889400C000C0002C9EB96111C5
:102280006F0D00C0002C9EB800C026FF9EB908F458
:102290006FEF889400C000C000C09EB970FD060FAB
:1022A00000C0002C9EB800C025FF9EB907958894F9
:1022B00071FD060F00C000C0002C9EB907958894E0
:1022C00000C0002C9EB800C024FF9EB972FD060F0E
:1022D0000795889400C000C0002C9EB973FD060FBE
:1022E00000C0002C9EB800C023FF9EB907958894BB
:1022F00074FD060F00C000C0002C9EB9079588949D
:1023000000C0002C9EB800C022FF9EB975FD060FCC
:102310000795889400C000C0002C9EB976FD060F7A
:1023200000C0002C9EB800C021FF9EB9079588947C
:1023300077FD060F00C000C0002C9EB90795889459
:1023400000C0002C9EB800C020FF9EB9F194FD0E85
:1023500000C000C000C0002C9EB9202F00C000C0EB
:102360009EB800C027FF9EB962810027889400C0F4
:1023700000C0002C9EB961116E0D00C0002C9EB8EB
:1023800000C026FF9EB908F46FEF889400C000C01B
:1023900000C09EB9C0FD060F00C0002C9EB800C052
:1023A00025FF9EB907958894C1FD060F00C000C0A7
:1023B000002C9EB90795889400C0002C9EB800C0E0
:1023C00024FF9EB9C2FD060F0795889400C000C087
:1023D000002C9EB9C3FD060F00C0002C9EB800C0A3
:1023E00023FF9EB907958894C4FD060F00C000C066
:1023F000002C9EB90795889400C0002C9EB800C0A0
:1024000022FF9EB9C5FD060F0795889400C000C045
:10241000002C9EB9C6FD060F00C0002C9EB800C05F
:1024200021FF9EB907958894C7FD060F00C000C024
:10243000002C9EB90795889400C0002C9EB800C05F
:1024400020FF9EB9E80DF11D8894202F00C000C028
:10245000002C9EB9E194E10E00C0002C9EB800C093
:1024600027FF9EB961810027889400C000C0002C1E
:102470009EB96111680F00C0002C9EB800C026FFF5
:102480009EB908F46FEF889400C000C000C09EB9E8
:1024900040FD060F00C0002C9EB800C025FF9EB96D
:1024A0000795889441FD060F00C000C0002C9EB91E
:1024B0000795889400C0002C9EB800C024FF9EB9E8
:1024C00042FD060F0795889400C000C0002C9EB9FD
:1024D00043FD060F00C0002C9EB800C023FF9EB92C
:1024E0000795889444FD060F00C000C0002C9EB9DB
:1024F0000795889400C0002C9EB800C022FF9EB9AA
:1025000045FD060F0795889400C000C0002C9EB9B9
:1025100046FD060F00C0002C9EB800C021FF9EB9EA
:102520000795889447FD060F00C000C0002C9EB997
:102530000795889400C0002C9EB800C020FF9EB96B
:102540008195850F202F00C000C000C09EB9119753
:1025500009F08ACEDF91CF911F910F91FF90EF90FC
:10256000DF90CF90BF90AF909F908F900895EF92A3
:10257000FF920F931F93CF93DF93EC0190919E02F4
:102580009F5F292F277020939E0290FF02C090E842
:1025900001C090E021FD9064247009F0906220E178
:1025A000290FFE013A967E018DE0E80EF11C00E055
:1025B00011E06191662331F070E0C8010E940F269E
:1025C0006F5F01C060E0DF0114976C93322F369F7C
:1025D000312D1124CF010797EC013883662311F0C8
:1025E00061506C93EE15FF0521F7DF91CF911F919C
:1025F0000F91FF90EF900895AF92BF92CF92DF922C
:10260000EF92FF920F93CF93DF93CDB7DEB72E9764
:102610000FB6F894DEBF0FBECDBF6C015A01F901B1
:10262000DC011C968C917A8369835C834B83908157
:102630009B8791819C8792819D87813029F4CE016F
:1026400001960E94B71206C01A86198618861F8244
:102650001E821D8289819A818E0D911D9A838983A4
:10266000002319F083E08E0D01C080E08E870E9468
:10267000C521F60127853089621B730B6A3071050D
:10268000B0F3F894CE0101960E94FD1020EE31E0E7
:10269000D5010E947B26AB01BC01E4E076956795ED
:1026A00057954795EA95D1F780E090E09C01EAE9DB
:1026B000AE9E212DBE9E200D311D1124420F531FB1
:1026C000611D711D493EF3E05F076105710588F1E9
:1026D000485E53406109710922E0769567955795E8
:1026E00047952A95D1F727E0429F812D529F800D73
:1026F000911D112420911A0930E0420F531F480FF9
:10270000591F8091D8099091D909A091DA09B09107
:10271000DB09252F3327820F931FA11DB11D809345
:10272000D8099093D909A093DA09B093DB094093B3
:102730001A0978940E94C521D60150967C936E9315
:102740001F972E960FB6F894DEBF0FBECDBFDF9158
:10275000CF910F91FF90EF90DF90CF90BF90AF900F
:102760000895EF92FF920F93CF93DF9300D0CDB7F0
:10277000DEB7AB0119821A821B82E12CF12C00E03A
:102780009E012F5F3F4FB9010E94FC120F900F90E6
:102790000F90DF91CF910F91FF90EF900895EF92FE
:1027A000FF920F93E12CF12C01E00E94FC120F919B
:1027B000FF90EF900895EF92FF920F93E12CF12C90
:1027C00000E00E94FC120F91FF90EF90089564E6E4
:1027D00072E087E895E00E94CC2064E672E081E830
:1027E00095E00E94CC2064E672E08BE795E00C94C3
:1027F000CC208BE795E00E945E2081E895E00E9466
:102800005E2087E895E00C945E202F923F924F92D5
:102810005F926F927F928F929F92AF92BF92CF9270
:10282000DF92EF92FF920F931F93CF93DF9300D02D
:1028300000D0CDB7DEB701E08AE399E00E94A31D86
:10284000892BA9F080917A05811111C08AE399E062
:102850000E94BD1D182F682F87E895E00E94262151
:102860001A3011F01D3041F700937A05E5CF0E9430
:10287000B9212B013C018091740590917505A091BF
:102880007605B0917705A3019201281B390B4A0BFD
:102890005B0B20313105410551050CF420C34092FA
:1028A0007405509275056092760570927705609177
:1028B0006A0570916B05CB0177FF04C088279927C3
:1028C000861B970B2091630530916405069724F1D0
:1028D0004092700550927105609272057092730576
:1028E00029543240C9F58FEF9FEF9093790580937B
:1028F000780540925F055092600560926105709284
:10290000620510926C0510926D0510926E05109282
:102910006F058CE292E01CC080917005909171056A
:10292000A0917205B09173058053984FAF4FBF4F80
:1029300084159505A605B7057CF42954324061F04D
:1029400085E090E0909311028093100289E492E078
:10295000909364058093630580916305909164056D
:10296000E2E089349E0719F40E94E10EB2C222E02F
:102970008732920709F083C080916505882399F01A
:102980008091660590916705A0916805B0916905F1
:102990008E539E4FAF4FBF4F84159505A605B705C3
:1029A00014F410926505E0905D05F0905E0580914D
:1029B0005B0590915C05E80EF91EF0925E05E092D1
:1029C0005D0580916505882359F080915D059091A2
:1029D0005E050E94C30E8823D1F10E94A00837C073
:1029E000072E000C880B990B0E94622420E030E037
:1029F00040EC50E40E94B8230E942A24719561950E
:102A000071096F31710514F06EE170E0623E3FEFC5
:102A1000730714F462EE7FEFE61AF70AF7FC05C0BD
:102A2000F0925E05E0925D0504C010925E05109282
:102A30005D0580915D0590915E05883E93402CF286
:102A40008091BE028111C1CF0E945E0805C460E082
:102A500089E299E00E94911B0E94DF0C0E943B09D1
:102A60000E94EC090E94F20A0E9490100E94F9084C
:102A70000E94DC0A0E94EE0D0E942E092AC252E03A
:102A80008434950761F460E089E299E00E94911B2B
:102A90000E94990C81111DC20E94BF041AC2E2E07B
:102AA0008C329E0709F07AC060E089E299E00E94CA
:102AB000911B20916C0530916D0540916E055091F0
:102AC0006F052F333105410551050CF049C06BEFFF
:102AD0006203F001639FF00D11246F0181EDC81AAC
:102AE0008EEFD80AABEFBFEF0E9490264B015C013E
:102AF0002DE3820E21E0921EA11CB11C3090120227
:102B0000CF01880F991F8E0F9F1F83579A4F40E068
:102B100050E0BA010D2C000CEE08FF08DF01A55DA6
:102B2000BE4F8A019B010C0D1D1D2E1D3F1D8016E1
:102B30009106A206B306F4F09D01240F351F2B3237
:102B4000314040F4FC01E357FC4F10823196308253
:102B5000319610824F5F5F4F6F4F7F4F0396E1CFEB
:102B60000E94810810926C0510926D0510926E05FE
:102B700010926F0580916C0590916D05A0916E0586
:102B8000B0916F050196A11DB11D80936C059093C6
:102B90006D05A0936E05B0936F059BC122E0803355
:102BA000920709F086C160E089E299E00E94911BDA
:102BB0000E94891C80915F0590916005A09161053C
:102BC000B0916205AC01BD014D505E4F6F4F7F4F1C
:102BD00044155505660577050CF48DC0A3019201D7
:102BE000281B390B4A0B5B0BCA01B9011F921F92BC
:102BF0001F921F92EFE2AE2EBB24B394C12CD12CB6
:102C000014EFE12EFF24F39400E010E020E030E028
:102C1000A9010E941D200F900F900F900F90161683
:102C2000170618061906FCF480915F05909160055F
:102C3000A0916105B0916205A3019201281B390B97
:102C40004A0B5B0BCA01B9011F921F921F921F9280
:102C500020E030E0A9010E941D208B010F900F9011
:102C60000F900F9002C000E010E05301420136EDDA
:102C7000830E3BE0931EA11CB11C5AE1C52E59E006
:102C8000D52E6FE2E62EFF24F39433243A9472E3B8
:102C9000272EE016F1060CF41CC1C501B4010E94F8
:102CA000622420E030E04AEF53E40E94B8230E94FF
:102CB0005B2520E030E040E85FE30E944C2320E009
:102CC00030E04FE753E40E94EE240E942A246983F7
:102CD0003A822B82B601CE0101960E94C91B41E0C7
:102CE000E41AF1085AE0851A9108A108B10883E0B6
:102CF000C81AD108CECFAC01BD0149575C4E6F4F09
:102D00007F4F4415550566057705F4F1730162019F
:102D1000E6EDCE0EEBE0DE1EE11CF11C00E010E063
:102D2000AA24AA9442E3B42EC701B6010E946224E9
:102D300020E030E04AEF53E40E94B8230E945B2574
:102D400020E030E040E85FE30E944C2320E030E0E8
:102D50004FE753E40E94EE240E942A246983AA824A
:102D6000BB82B801665E764FCE0101960E94C91BF8
:102D70002AE0C21AD108E108F1080350110900370E
:102D80003CEF130789F6A5C0AC01BD0145585A4E6A
:102D90006F4F7F4F44155505660577050CF486C0C7
:102DA000A3019201281B390B4A0B5B0BCA01B90125
:102DB0001F921F921F921F922FE2A22EBB24B39448
:102DC000C12CD12C1CE7E12E15E1F12E00E010E022
:102DD00028E833E140E050E00E941D200F900F9062
:102DE0000F900F90161617061806190604F5809115
:102DF0005F0590916005A0916105B0916205A30106
:102E00009201281B390B4A0B5B0BCA01B9011F92B7
:102E10001F921F921F9228E833E140E050E00E9489
:102E20001D207B010F900F900F900F9002C0E12C9E
:102E3000F12C8DE8C82E85E0D82E5301420100E028
:102E400010E033243A9492E3292E0E151F050CF05E
:102E500040C0C501B4010E94622420E030E04AEF86
:102E600053E40E94B8230E945B2520E030E040E854
:102E70005FE30E944C2320E030E04FE753E40E94E0
:102E8000EE240E942A2469833A822B82B601CE0165
:102E900001960E94C91B0F5F1F4F3AE0830E911CE1
:102EA000A11CB11C43E0C40ED11CCFCF0E948108ED
:102EB00010C08555924069F460E089E299E00E9473
:102EC000911B10925F05109260051092610510929F
:102ED00062056091290989E299E00E947B1A80913C
:102EE0007A05882309F4B8C16EE572E0CE01019637
:102EF0000E94CC20BE016F5F7F4F87E895E00E9463
:102F00006021182FCE0101960E945E201123B1F09E
:102F100080916505811198C14092660550926705C0
:102F2000609268057092690581E08093650560E6AE
:102F300072E08AE399E00E94F30186C165E672E0DF
:102F4000CE0101960E94CC20BE016F5F7F4F87E8C3
:102F500095E00E946021182FCE0101960E945E200C
:102F6000112319F081EF9FEF16C067E672E0CE01E2
:102F700001960E94CC20BE016F5F7F4F87E895E0ED
:102F80000E946021182FCE0101960E945E2011231D
:102F900039F08FE090E090936B0580936A0554C1FF
:102FA00069E672E0CE0101960E94CC20BE016F5FFF
:102FB0007F4F87E895E00E946021182FCE0101968F
:102FC0000E945E20112319F089EF9FEFE4CF6BE69A
:102FD00072E0CE0101960E94CC20BE016F5F7F4F50
:102FE00087E895E00E946021182FCE0101960E948B
:102FF0005E20112319F087E090E0CDCF6DE672E0FE
:10300000CE0101960E94CC20BE016F5F7F4F87E802
:1030100095E00E946021182FCE0101960E945E204B
:10302000112319F08AEE9FEFB6CF6FE672E0CE0162
:1030300001960E94CC20BE016F5F7F4F87E895E02C
:103040000E946021182FCE0101960E945E2011235C
:1030500019F086E190E09FCF61E772E0CE01019622
:103060000E94CC20BE016F5F7F4F87E895E00E94F1
:103070006021182FCE0101960E945E20112319F0C5
:1030800082EE9FEF88CF63E572E0CE0101960E9449
:10309000CC20BE016F5F7F4F87E895E00E946021E2
:1030A000182FCE0101960E945E20112319F08EE1A7
:1030B00090E071CF63E772E0CE0101960E94CC20D0
:1030C000BE016F5F7F4F87E895E00E946021182F57
:1030D000CE0101960E945E20112329F010926B050B
:1030E00010926A05B1C06EE272E0CE0101960E94B4
:1030F000CC20BE016F5F7F4F87E895E00E94602182
:10310000182FCE0101960E945E20112319F00E9413
:1031100081089AC065E772E0CE0101960E94CC203A
:10312000BE016F5F7F4F87E895E00E946021182FF6
:10313000CE0101960E945E20112311F060E015C0BF
:1031400067E772E0CE0101960E94CC20BE016F5F5E
:103150007F4F87E895E00E946021182FCE010196ED
:103160000E945E20112329F061E086E10E941A236B
:103170006BC069E772E0CE0101960E94CC20BE01CF
:103180006F5F7F4F87E895E00E946021182FCE0186
:1031900001960E945E20112399F080911002909177
:1031A00011020196909311028093100206970CF47D
:1031B0004BC081E090E0909311028093100244C0D4
:1031C0006BE772E0CE0101960E94CC20BE016F5FDA
:1031D0007F4F87E895E00E946021182FCE0101966D
:1031E0000E945E20112349F08091120290911302F7
:1031F000853F91054CF50A961CC067E472E0CE014C
:1032000001960E94CC20BE016F5F7F4F87E895E05A
:103210000E946021182FCE0101960E945E2011238A
:1032200069F080911202909113028333910564F04A
:103230000A97909313028093120206C064E672E02C
:1032400087E895E00E94E12064E672E087E895E077
:103250000E94E12010927A0526960FB6F894DEBF00
:103260000FBECDBFDF91CF911F910F91FF90EF90D7
:10327000DF90CF90BF90AF909F908F907F906F9096
:103280005F904F903F902F9008954F925F926F9272
:103290007F92AF92BF92CF92DF92EF92FF920F9305
:1032A0001F93CF93DF93FC0110821182128244237B
:1032B000B9F18B01075F1F4F5C01EB012C96442E87
:1032C000512C612C712CD8011397CC90D8012D91E1
:1032D0008D01CC20F9F02223E9F0822F90E0A0E0CC
:1032E000B0E09C01AD012F5F3F4F4F4F5F4FC301D7
:1032F000B2010E94EB259B01AC01D12CE12CF12CF9
:10330000C701B6016F5F7F4F8F4F9F4F0E94EB2524
:10331000D5018C93BFEFAB1ABB0A0C171D0799F6AA
:10332000CF01DF91CF911F910F91FF90EF90DF9030
:10333000CF90BF90AF907F906F905F904F90089527
:10334000CF92DF92EF92FF920F931F93CF93DF9371
:103350008C016B01EA017901121613061CF07A0147
:10336000C0E0D0E0D801ED91FC910480F581E02D22
:10337000C8011995BE01660F771FC60FD71FB6018A
:103380006C0F7D1FF80173836283F686E5860190DA
:10339000F081E02D0284F385E02DC8011995009796
:1033A00011F19C0140E050E060E472E48FE090E0B5
:1033B0000E944526C0902C09D0902D09E0902E093E
:1033C000F0902F09C901DA018C159D05AE05BF05E6
:1033D00010F4D701C60180932C0990932D09A09376
:1033E0002E09B0932F09C801DF91CF911F910F9142
:1033F000FF90EF90DF90CF900895CF93DF93C0912F
:103400002709D0912809209791F08A819B81009704
:1034100051F04D855E859A01220F331F420F531FD5
:1034200060E00E947E1C0C80DD81C02DECCFDF911E
:10343000CF910895E0912709F0912809309729F05C
:1034400064870480F581E02DF9CF0895CF92DF9253
:10345000EF92FF920F931F93CF93DF9320911F0959
:1034600030912009A9014F5F5F4F5093200940938D
:103470001F0926173707B4F1EC010E94B9218B010F
:103480009C01E0911F09F091200988EE93E0E89FEC
:10349000B001E99F700DF89F700D1124072E000CEC
:1034A000880B990BC0901B09D0901C09E0901D0956
:1034B000F0901E09A90198012C193D094E095F09D8
:1034C0000E9423263A8329831092200910921F0913
:1034D0000E94B92160931B0970931C0980931D09F8
:1034E00090931E09DF91CF911F910F91FF90EF9064
:1034F000DF90CF900895AF92BF92CF92DF92EF927C
:10350000FF920F931F93CF93DF9300D0CDB7DEB719
:103510007C01D62EF70183819481A581B681892B08
:103520008A2B8B2BD1F00E94C5210091210910918B
:1035300022092091230930912409DC01CB01801B51
:10354000910BA20BB30BF701038114812581368106
:1035500080179107A207B307E8F20E94C521609384
:103560002109709322098093230990932409D7019C
:103570001B96ED91FC911C97309751F0D70117964F
:103580004D915D916D917C911A978D2D1995D82E45
:1035900000912709109128090115110551F1F80131
:1035A000C484D70111968D919C9112978436910510
:1035B00008F41486D801ED91FC91A280B3804D2DC2
:1035C000B801CE0101960E944519F801458556853E
:1035D000628173819E012F5F3F4FC801F5011995EC
:1035E000D8011C96CC921C9714960D911C9115979E
:1035F000D3CF69E170E0C7010E94261A0F900F90A7
:103600000F90DF91CF911F910F91FF90EF90DF907E
:10361000CF90BF90AF9008958F929F92AF92BF923C
:10362000CF92DF92EF92FF920F931F93CF93DF938E
:1036300000D0CDB7DEB77C016B01B42EF7018381DA
:103640009481A581B681892B8A2B8B2BD1F00E9486
:10365000C52100912109109122092091230930915F
:103660002409DC01CB01801B910BA20BB30BF701EA
:10367000038114812581368180179107A207B30742
:10368000E8F20E94C521609321097093220980937A
:103690002309909324090091270910912809011505
:1036A000110551F1D8011C96AC901C97F70181814E
:1036B00092818436910510F41C961C92D801ED91EC
:1036C000FC91808091804B2DB801CE0101960E9423
:1036D0004519F801458556859E012F5F3F4FB6017C
:1036E000C801F4011995D8011C96AC921C97149648
:1036F0000D911C911597D3CF69E170E0C7010E942D
:10370000261A0F900F900F90DF91CF911F910F917C
:10371000FF90EF90DF90CF90BF90AF909F908F90F1
:1037200008950F931F93CF93DF9300D0CDB7DEB7EB
:103730008C01662349F019821A821B8240E0BE0187
:103740006F5F7F4F0E940C1BC8010E94FD190F90F4
:103750000F900F90DF91CF911F910F910895E9E2A3
:10376000F9E08FEF808312821182148613868FEF27
:103770009FEFDC0187839087A187B2870895FC01C2
:103780002081222321F0269F212D09F02F5F208305
:103790000895FF920F931F93CF93DF9300D01F9252
:1037A000CDB7DEB7FC018B016081F1804281262F0D
:1037B0002F71220F220F822F880F35E5282F239F8C
:1037C000212D1124562F5074962F907267FD22C020
:1037D00051110CC0911104C0822F80958B8311C0B0
:1037E0008BEA8B832B5A2A83198239C091110CC022
:1037F000382F5AEA359F312D11248BEA831B8B8396
:1038000025552A8319822BC01B8280E0822F809548
:103810008A8312C0511112C091110BC01B82282F34
:103820003AEA239F212D11248BEA821B8A832B5A8B
:1038300003C02B831A822095298311C0911108C0DF
:1038400085E5820F8B831A828BEA821B898307C0EE
:103850008BEA820F8B831A8280E0321B39832FEF31
:10386000F21601F16F2DCE0103964C830E94BF1B0F
:103870006F2DCE0102960E94BF1B6F2DCE010196C7
:103880000E94BF1B11246F2D6095669F612D11242E
:103890008B81860F8B838A81860F8A838981680F4B
:1038A00069834C814F3FC9F0F12C2F2D442321F027
:1038B000449F212D09F02F5FF22E622FCE01039637
:1038C0000E94BF1B6F2DCE0102960E94BF1B6F2D61
:1038D000CE0101960E94BF1B11248B81F8018083C9
:1038E0008A818183898182830F900F900F900F903E
:1038F000DF91CF911F910F91FF900895DC0140FF60
:1039000003C001C06D936D934250E0F75040D0F773
:103910000895EFE6F0E080818D7F808382E08093E0
:10392000810081E0809380002D982E9808953F9229
:103930004F925F926F927F928F929F92AF92BF92BF
:10394000CF92DF92EF92FF920F931F93CF93DF936B
:1039500000D01F92CDB7DEB72B013C0148015901C1
:103960003E2C672B682B692B09F485C0442309F48E
:1039700082C0042F4B3008F00AE084B1806684B91D
:1039800060E072E18AE790E0A30192010E942326A1
:1039900069017A0181E0C81AD108E108F108C1146F
:1039A000D10481E0E806F10458F0CD2CDE2CEF2C98
:1039B000FF2481E0C81AD108E108F10814E001C031
:1039C00011E0E02FF0E0EB5EFD4F208130E040E0C1
:1039D00050E0C701B6010E94232681149104A1047E
:1039E000B104E9F03320D9F029833A834B835C8317
:1039F0000E94B921DC01CB01880D991DAA1DBB1DB8
:103A00008093360990933709A0933809B093390908
:103A100080916F00826080936F003A812981D092FB
:103A20008700C09286008091840090918500A0E07C
:103A3000B0E0C816D906EA06FB0620F4D09285004D
:103A4000C092840010611093810030938B0020930A
:103A50008A00309389002093880080EB8093800057
:103A600081149104A104B104E9F031101BC0C50117
:103A7000B4010E94EA210F900F900F900F90DF91F8
:103A8000CF911F910F91FF90EF90DF90CF90BF905B
:103A9000AF909F908F907F906F905F904F903F90EE
:103AA0000C94891C0F900F900F900F90DF91CF9185
:103AB0001F910F91FF90EF90DF90CF90BF90AF904C
:103AC0009F908F907F906F905F904F903F90089560
:103AD0001F920F920FB60F9211240BB60F920F93F5
:103AE0001F932F933F934F935F936F937F938F9386
:103AF0009F93AF93BF93EF93FF930E94B9210091DF
:103B00003609109137092091380930913909601729
:103B100071078207930710F00E94891CFF91EF91B3
:103B2000BF91AF919F918F917F916F915F914F91D5
:103B30003F912F911F910F910F900BBE0F900FBED1
:103B40000F901F901895FC01918D228D892F90E088
:103B5000805C9F4F821B91098F7399270895FC0108
:103B6000918D828D981731F0828DE80FF11D858D32
:103B700090E008958FEF9FEF0895FC01918D828D65
:103B8000981761F0828DDF01A80FB11D5D968C91B1
:103B9000928D9F5F9F73928F90E008958FEF9FEFBC
:103BA00008958DE59FE1892B41F080E090E0892B1D
:103BB00021F00E945D1F811125C080E090E0892BDB
:103BC00041F080E090E0892B21F00E9400008111FB
:103BD0001CC080E090E0892B41F080E090E0892BD0
:103BE00021F00E940000811113C080E090E0892B39
:103BF000A1F080E090E0892B81F00E94000081110B
:103C00000AC008950E940000D8CF0E940000E1CFB2
:103C10000E940000EACF0C9400000895FC01848DFE
:103C2000DF01A80FB11DA35ABF4F2C91848D90E0E6
:103C300001968F739927848FA689B7892C93A089C1
:103C4000B1898C9180648C93938D848D981306C078
:103C50000288F389E02D80818F7D80830895CF9342
:103C6000DF93EC01888D8823C9F0EA89FB89808184
:103C700085FD05C0A889B9898C9186FD0FC00FB656
:103C800007FCF5CF808185FFF2CFA889B9898C9197
:103C900085FFEDCFCE010E940E1EE7CFDF91CF91C1
:103CA0000895EF92FF920F931F93CF93DF93EC0150
:103CB00081E0888F9B8D8C8D981305C0E889F989E8
:103CC000808185FD24C0F62E0B8D10E00F5F1F4F05
:103CD0000F731127E02E8C8DE8120CC00FB607FC75
:103CE000FACFE889F989808185FFF5CFCE010E945E
:103CF0000E1EF1CF8B8DFE01E80FF11DE35AFF4F31
:103D0000F0820B8FEA89FB898081806207C0EE898F
:103D1000FF896083E889F98980818064808381E0FC
:103D200090E0DF91CF911F910F91FF90EF90089558
:103D3000CF92DF92EF92FF921F93CF93DF93EC012C
:103D40006A017B01122FE889F98982E0808341159D
:103D5000514E61057105B1F060E079E08DE390E0CE
:103D6000A70196010E942326DA01C9010197A10942
:103D7000B109B695A79597958795AC01411580E156
:103D80005807A8F0E889F989108260E874E88EE1A4
:103D900090E0A70196010E942326BA01A901415093
:103DA0005109610971097695679557954795EC8595
:103DB000FD855083EE85FF854083188EEC89FD8953
:103DC0001083EA89FB89808180618083EA89FB898D
:103DD000808188608083EA89FB8980818068808314
:103DE000EA89FB8980818F7D8083DF91CF911F914C
:103DF000FF90EF90DF90CF9008951F920F920FB633
:103E00000F9211240BB60F922F938F939F93EF93E2
:103E1000FF93E0914A09F0914B098081E0915009AC
:103E2000F091510982FD12C09081809153098F5FFA
:103E30008F7320915409821751F0E0915309F0E0FB
:103E4000E65CF64F958F8093530901C08081FF9106
:103E5000EF919F918F912F910F900BBE0F900FBEFE
:103E60000F901F9018951F920F920FB60F9211246A
:103E70000BB60F922F933F934F935F936F937F9364
:103E80008F939F93AF93BF93EF93FF938AE399E050
:103E90000E940E1EFF91EF91BF91AF919F918F9164
:103EA0007F916F915F914F913F912F910F900BBE3A
:103EB0000F900FBE0F901F9018958AE399E00E9413
:103EC000A31D21E0892B09F420E0822F0895EAE365
:103ED000F9E01382128288EE93E0A0E0B0E08483E0
:103EE0009583A683B78381E992E09183808385ECF3
:103EF00090E09587848784EC90E09787868780ECB4
:103F000090E0918B808B81EC90E0938B828B82ECA4
:103F100090E0958B848B86EC90E0978B868B118E4E
:103F2000128E138E148E089508950E9426220E94E8
:103F3000941F0E94BD07C1EDDDE10E94051420978A
:103F4000E1F30E94D11DF9CFCF92DF92EF92FF9261
:103F50000F931F93CF93DF936C017A018B01C0E025
:103F6000D0E0CE15DF0589F0D8016D918D01D60125
:103F7000ED91FC910190F081E02DC6011995892BFE
:103F800011F47E0102C02196ECCFC701DF91CF91E1
:103F90001F910F91FF90EF90DF90CF9008956115E2
:103FA00071058105910511F00C9413280895CF93A4
:103FB000DF9300D01F92CDB7DEB761157105810583
:103FC000910579F09B01AC0169833A834B835C8353
:103FD0000E940F2829813A814B815C810E944526ED
:103FE00003C060E070E0CB010F900F900F900F9036
:103FF000DF91CF910895CF92DF92EF92FF920F93CE
:104000001F93621773078407950784F489019A0147
:104010006B017C01C901B8016C197D098E099F09EA
:104020000E94D71F6C0D7D1D8E1D9F1D1F910F912E
:10403000FF90EF90DF90CF9008954F925F926F9234
:104040007F92AF92BF92CF92DF92EF92FF920F9347
:104050001F93CF93DF93CDB7DEB729013A019B01C0
:10406000AC0124193509460957098A899B89AC890D
:10407000BD89BC01CD016A197B098C099D090E948B
:10408000EB25A801970124193509460957090E9413
:104090004526CA01B9016A0D7B1D8C1D9D1DDF914E
:1040A000CF911F910F91FF90EF90DF90CF90BF9035
:1040B000AF907F906F905F904F900895FC0180814A
:1040C00091810C942A27CF93DF93EC018881998109
:1040D000009711F00E942A27198218821D821C82E3
:1040E0001B821A82DF91CF9108950F931F93CF9374
:1040F000DF93EC018B016F5F7F4F888199810E9474
:104100001C28009731F0998388831B830A8381E000
:1041100001C080E0DF91CF911F910F910895CF935F
:10412000DF93EC0188819981892B29F08A819B8119
:104130008617970760F4CE010E947520882341F00E
:104140008C819D81892B19F4E881F981108281E0AD
:10415000DF91CF910895EF92FF920F931F93CF932A
:10416000DF93EC017B018A01BA010E948F2081114B
:1041700004C0CE010E94632007C01D830C83B701D9
:10418000888199810E940E29CE01DF91CF911F91E4
:104190000F91FF90EF900895FC011182108213821D
:1041A0001282158214826115710551F0FB01019094
:1041B0000020E9F73197AF01461B570B0C94AB2059
:1041C0000895CF93DF93EC016115710559F0FB0160
:1041D00001900020E9F73197AF01461B570B0E9471
:1041E000AB2002C00E946320CE01DF91CF910895E1
:1041F000EF92FF920F931F93CF93DF93FC012481E3
:1042000035816115710511F480E019C04115510522
:10421000A9F07B01EC018A01020F131FB8010E9473
:104220008F20882389F3288139818C819D81B70172
:10423000820F931F0E940E291D830C8381E0DF9162
:10424000CF911F910F91FF90EF900895CF93DF933F
:104250001F921F92CDB7DEB769831A8241E050E00A
:10426000BE016F5F7F4F0E94F8200F900F90DF918B
:10427000CF910895DB011496ED91FC911597DC0127
:1042800014962D913C9115972E1B3F0B2417350743
:10429000A0F02D913C912115310579F0DB016D9154
:1042A0007C916115710549F0CA01AF01820F931F1E
:1042B0000E94152921E0892B09F020E0822F089522
:1042C000FC0144815581FB0124813581421753074C
:1042D00020F040E050E00C943A2180E008951F92D5
:1042E0000F920FB60F9211242F933F938F939F93AA
:1042F000AF93BF938091D8099091D909A091DA0921
:10430000B091DB093091D70923E0230F2D3720F43A
:104310000196A11DB11D05C026E8230F0296A11D1F
:10432000B11D2093D7098093D8099093D909A09300
:10433000DA09B093DB098091DC099091DD09A09145
:10434000DE09B091DF090196A11DB11D8093DC0942
:104350009093DD09A093DE09B093DF09BF91AF917F
:104360009F918F913F912F910F900FBE0F901F90B3
:1043700018952FB7F8946091D8097091D909809158
:10438000DA099091DB092FBF08953FB7F894809127
:10439000DC099091DD09A091DE09B091DF0926B515
:1043A000A89B05C02F3F19F00196A11DB11D3FBF6D
:1043B000BA2FA92F982F8827820F911DA11DB11DFB
:1043C000BC01CD0142E0660F771F881F991F4A95F7
:1043D000D1F708958F929F92AF92BF92CF92DF92C2
:1043E000EF92FF926B017C010E94C5214B015C01A1
:1043F000C114D104E104F10401F10E944A230E9496
:10440000C521DC01CB0188199909AA09BB09883E9D
:104410009340A105B10560F321E0C21AD108E1087B
:10442000F10888EE880E83E0981EA11CB11CC1140F
:10443000D104E104F10419F7DBCFFF90EF90DF9096
:10444000CF90BF90AF909F908F900895789484B54F
:10445000826084BD84B5816084BD85B5826085BD80
:1044600085B5816085BDEEE6F0E080818160808366
:10447000E1E8F0E010828081826080838081816049
:104480008083E0E8F0E0808181608083E1EBF0E010
:10449000808184608083E0EBF0E0808181608083B4
:1044A000E1E9F0E0808182608083808181608083A7
:1044B000E0E9F0E0808181608083E1EAF0E08081E2
:1044C00082608083808181608083E0EAF0E0808187
:1044D00081608083E1E2F1E080818260808380817D
:1044E00081608083E0E2F1E0808181608083EAE79F
:1044F000F0E080818460808380818260808380811D
:10450000816080838081806880831092C1000895DB
:1045100090E0FC013197E231F10508F04EC08827A8
:10452000ED57FF4F8F4F0C946426809180008F775A
:1045300003C0809180008F7D8093800008958091DA
:104540008000877FF9CF84B58F7702C084B58F7DD7
:1045500084BD08958091B0008F7703C08091B00032
:104560008F7D8093B0000895809190008F7707C071
:10457000809190008F7D03C080919000877F809311
:10458000900008958091A0008F7707C08091A000CF
:104590008F7D03C08091A000877F8093A000089545
:1045A000809120018F7707C0809120018F7D03C00B
:1045B00080912001877F809320010895CF93DF931E
:1045C00090E0FC01E25AFD4F2491FC01EC55FD4FB7
:1045D0008491882361F190E0880F991FFC01EC5FC2
:1045E000FC4FC591D491FC01E651FD4FA591B491CA
:1045F000611109C09FB7F894888120958223888330
:10460000EC912E230BC0623061F49FB7F89438818F
:10461000822F809583238883EC912E2B2C939FBF30
:1046200006C08FB7F894E8812E2B28838FBFDF91C7
:10463000CF9108951F93CF93DF93282F30E0F90196
:10464000E85EFD4F8491F901E25AFD4FD491F901E2
:10465000EC55FD4FC491CC23C9F0162F81110E9457
:104660008822EC2FF0E0EE0FFF1FE651FD4FA591E1
:10467000B4918FB7F894111105C09C91ED2FE0957E
:10468000E92302C0EC91ED2BEC938FBFDF91CF912A
:104690001F91089508955058BB27AA270E946323AD
:1046A0000C94B4240E94A62438F00E94AD2420F07B
:1046B00039F49F3F19F426F40C94A3240EF4E095EA
:1046C000E7FB0C949D24E92F0E94C52458F3BA17E8
:1046D000620773078407950720F079F4A6F50C9418
:1046E000E7240EF4E0950B2EBA2FA02D0B01B90193
:1046F00090010C01CA01A0011124FF27591B99F058
:10470000593F50F4503E68F11A16F040A22F232F63
:10471000342F4427585FF3CF469537952795A795B3
:10472000F0405395C9F77EF41F16BA0B620B730B5A
:10473000840BBAF09150A1F0FF0FBB1F661F771FCB
:10474000881FC2F70EC0BA0F621F731F841F48F480
:10475000879577956795B795F7959E3F08F0B0CF09
:104760009395880F08F09927EE0F979587950895F0
:104770000E94CC230C94B4240E94AD2458F00E94D3
:10478000A62440F029F45F3F29F00C949D24511198
:104790000C94E8240C94A3240E94C52468F3992364
:1047A000B1F3552391F3951B550BBB27AA2762172D
:1047B0007307840738F09F5F5F4F220F331F441F3A
:1047C000AA1FA9F335D00E2E3AF0E0E832D091506E
:1047D0005040E695001CCAF72BD0FE2F29D0660F5B
:1047E000771F881FBB1F261737074807AB07B0E89E
:1047F00009F0BB0B802DBF01FF2793585F4F3AF0A4
:104800009E3F510578F00C949D240C94E8245F3F62
:10481000E4F3983ED4F3869577956795B795F79529
:104820009F5FC9F7880F911D9695879597F9089511
:10483000E1E0660F771F881FBB1F621773078407AD
:10484000BA0720F0621B730B840BBA0BEE1F88F7BC
:10485000E09508950E9431246894B1110C94E824E5
:1048600008950E94CD2488F09F5798F0B92F99277A
:10487000B751B0F0E1F0660F771F881F991F1AF04B
:10488000BA95C9F714C0B13091F00E94E724B1E0A5
:1048900008950C94E724672F782F8827B85F39F0A4
:1048A000B93FCCF3869577956795B395D9F73EF4E4
:1048B00090958095709561957F4F8F4F9F4F08958C
:1048C000E89409C097FB3EF49095809570956195AA
:1048D0007F4F8F4F9F4F9923A9F0F92F96E9BB2760
:1048E0009395F695879577956795B795F111F8CFDC
:1048F000FAF4BB0F11F460FF1BC06F5F7F4F8F4F47
:104900009F4F16C0882311F096E911C0772321F03C
:104910009EE8872F762F05C0662371F096E8862FD4
:1049200070E060E02AF09A95660F771F881FDAF72B
:10493000880F9695879597F9089597F99F6780E86E
:1049400070E060E008959FEF80EC089500240A94E1
:104950001616170618060906089500240A9412165A
:104960001306140605060895092E0394000C11F48D
:10497000882352F0BB0F40F4BF2B11F460FF04C03A
:104980006F5F7F4F8F4F9F4F089557FD9058440F93
:10499000551F59F05F3F71F04795880F97FB991F9E
:1049A00061F09F3F79F0879508951216130614065B
:1049B000551FF2CF4695F1DF08C0161617061806E8
:1049C000991FF1CF86957105610508940895E894C3
:1049D000BB2766277727CB0197F908950E94012509
:1049E0000C94B4240E94A62438F00E94AD2420F038
:1049F000952311F00C949D240C94A32411240C9461
:104A0000E8240E94C52470F3959FC1F3950F50E0F0
:104A1000551F629FF001729FBB27F00DB11D639F70
:104A2000AA27F00DB11DAA1F649F6627B00DA11D16
:104A3000661F829F2227B00DA11D621F739FB00DBC
:104A4000A11D621F839FA00D611D221F749F33272C
:104A5000A00D611D231F849F600D211D822F762FC5
:104A60006A2F11249F5750409AF0F1F088234AF0A2
:104A7000EE0FFF1FBB1F661F771F881F915050400E
:104A8000A9F79E3F510580F00C949D240C94E824D6
:104A90005F3FE4F3983ED4F3869577956795B79595
:104AA000F795E7959F5FC1F7FE2B880F911D9695AF
:104AB000879597F908959F930E9465250F9007FCAD
:104AC000EE5F0C948E250C94A3240E94CD24D8F381
:104AD000E894E0E0BB279F57F0F02AED3FE049EC77
:104AE00006C0EE0FBB0F661F771F881F28F0B23A73
:104AF00062077307840728F0B25A620B730B840BAA
:104B0000E3959A9572F7803830F49A95BB0F661F3B
:104B1000771F881FD2F790480C94A425EF93E0FFED
:104B200007C0A2EA2AED3FE049EC5FEB0E94632355
:104B30000E94B4240F90039401FC9058EAE2F1E043
:104B40000C94B0259F3F31F0915020F487957795D4
:104B50006795B795880F911D9695879597F9089554
:104B60009F938F937F936F93FF93EF939B01AC0180
:104B70000E94EE24EF91FF910E94C4252F913F9156
:104B80004F915F910C94EE24DF93CF931F930F937B
:104B9000FF92EF92DF927B018C01689406C0DA2EBF
:104BA000EF010E940125FE01E894A5912591359120
:104BB00045915591A6F3EF010E946323FE019701F1
:104BC000A801DA9469F7DF90EF90FF900F911F91A1
:104BD000CF91DF910895DB018F939F930E948226EE
:104BE000BF91AF91A29F800D911DA39F900DB29F89
:104BF000900D11240895AA1BBB1B51E107C0AA1FE9
:104C0000BB1FA617B70710F0A61BB70B881F991F6D
:104C10005A95A9F780959095BC01CD01089597FB11
:104C2000072E16F4009407D077FD09D00E94FB25CB
:104C300007FC05D03EF4909581959F4F089570959F
:104C400061957F4F0895A1E21A2EAA1BBB1BFD019F
:104C50000DC0AA1FBB1FEE1FFF1FA217B307E4075B
:104C6000F50720F0A21BB30BE40BF50B661F771FB3
:104C7000881F991F1A9469F7609570958095909593
:104C80009B01AC01BD01CF010895052E97FB1EF4D9
:104C900000940E945C2657FD07D00E94232607FC43
:104CA00003D04EF40C945C26509540953095219598
:104CB0003F4F4F4F5F4F0895909580957095619548
:104CC0007F4F8F4F9F4F0895EE0FFF1F881F8BBFA1
:104CD0000790F691E02D1994A29FB001B39FC001F7
:104CE000A39F700D811D1124911DB29F700D811D18
:104CF0001124911D08950E946C26B7FF0895821B10
:104D0000930B08950E946C26A59F900DB49F900D63
:104D1000A49F800D911D11240895B7FF0C94822645
:104D20000E948226821B930B0895CF93DF938230DB
:104D3000910510F482E090E0E091E209F091E3093E
:104D400020E030E0C0E0D0E0309711F140815181A7
:104D500048175907C0F04817590761F482819381B9
:104D6000209719F09B838A832BC09093E30980934B
:104D7000E20926C02115310519F04217530718F42E
:104D80009A01BE01DF01EF010280F381E02DDCCF4B
:104D90002115310509F1281B390B2430310590F418
:104DA00012968D919C9113976115710521F0FB016D
:104DB0009383828304C09093E3098093E209FD0109
:104DC000329644C0FD01E20FF31F8193919322506C
:104DD00031092D933C933AC02091E0093091E109CB
:104DE000232B41F420910202309103023093E10918
:104DF0002093E00920910002309101022115310534
:104E000041F42DB73EB74091040250910502241B96
:104E1000350BE091E009F091E109E217F307A0F406
:104E20002E1B3F0B2817390778F0AC014E5F5F4F00
:104E30002417350748F04E0F5F1F5093E109409348
:104E4000E0098193919302C0E0E0F0E0CF01DF91AF
:104E5000CF9108950F931F93CF93DF93009709F499
:104E60008CC0FC013297138212820091E2091091EA
:104E7000E3090115110581F420813181820F931F0F
:104E80002091E0093091E1092817390779F5F0936D
:104E9000E109E093E00971C0D80140E050E0AE17AD
:104EA000BF0750F412962D913C911397AD01211537
:104EB000310509F1D901F3CF9D01DA013383228352
:104EC00060817181860F971F8217930769F4EC0147
:104ED00028813981260F371F2E5F3F4F3183208372
:104EE0008A819B8193838283452B29F4F093E30984
:104EF000E093E20942C01396FC93EE931297ED0102
:104F0000499159919E01240F351FE217F30771F45F
:104F100080819181840F951F029611969C938E93A8
:104F20008281938113969C938E931297E0E0F0E038
:104F3000D80112968D919C911397009719F0F80162
:104F40008C01F6CF8D919C9198012E5F3F4F820F7F
:104F5000931F2091E0093091E1092817390769F47E
:104F6000309729F41092E3091092E20902C01382EB
:104F700012821093E1090093E009DF91CF911F9114
:104F80000F9108958F929F92AF92BF92CF92DF922E
:104F9000EF92FF92CF93DF93EC01688179818A8150
:104FA0009B81611571058105910521F464E279ED1C
:104FB0008BE597E02DE133EF41E050E00E9445267C
:104FC00049015A019B01AC01A7EAB1E40E94822683
:104FD0006B017C01ACEEB4EFA50194010E94902618
:104FE000DC01CB018C0D9D1DAE1DBF1DB7FF03C0A5
:104FF0000197A109B04888839983AA83BB83BC0128
:10500000CD019F77DF91CF91FF90EF90DF90CF9010
:10501000BF90AF909F908F9008950C94C22786E028
:1050200092E00C94C227609306027093070280936B
:1050300008029093090208956F927F928F929F9237
:10504000AF92BF92CF92DF92EF92FF920F931F9396
:10505000CF93DF93EC01009789F4CB01DF91CF91DF
:105060001F910F91FF90EF90DF90CF90BF90AF9086
:105070009F908F907F906F900C949526FC01E60F87
:10508000F71F9C0122503109E217F30708F4ACC066
:10509000D9010D911C91119706171707B0F0053033
:1050A000110508F49FC0C80104978617970708F4F4
:1050B00099C002501109061B170B019311936D93B0
:1050C0007C93CF010E942A278DC05B01A01AB10AF0
:1050D0004C01800E911EA091E209B091E30940E0DD
:1050E00050E0E12CF12C109709F44AC0A815B9053D
:1050F000D1F56D907C901197630182E0C80ED11CB0
:10510000CA14DB0480F1A3014A195B096A0182E039
:10511000C80ED11C1296BC9012971396AC91B5E0B4
:10512000CB16D10440F0B282A38351834083D901CE
:105130006D937C930AC00E5F1F4FC301800F911FB8
:10514000F90191838083EB2DFA2FE114F10431F002
:10515000D7011396FC93EE93129744C0F093E309A2
:10516000E093E2093FC08D919C9111974817590730
:1051700008F4AC017D0112960D90BC91A02DB3CF27
:105180008091E0099091E10988159905E1F44617AD
:105190005707C8F48091000290910102009741F4F2
:1051A0008DB79EB74091040250910502841B950B68
:1051B000E817F907C8F4F093E109E093E009F90171
:1051C000718360830FC0CB010E9495267C010097FC
:1051D00059F0A801BE010E940529CE010E942A278C
:1051E000C70104C0CE0102C080E090E0DF91CF9102
:1051F0001F910F91FF90EF90DF90CF90BF90AF90F5
:105200009F908F907F906F900895FB01DC0102C00A
:1052100001900D9241505040D8F70895FB01DC01F8
:1052200001900D920020E1F70895FB01DC0141504F
:10523000504030F08D910190801919F40020B9F799
:10524000881B990B089511E0C2E9D1E000E006C087
:10525000802FFE010E9464262196011DC339D107CB
:0A52600080E00807A9F7F894FFCFDB
:10526A000000E409800001000000010006000300BC
:10527A00050064003905C864433228211D160B0253
:10528A004F4646004F4E00504C41590057494E0078
:10529A00434F4D504C455445004E4E4E4E0A004425
:1052AA0044440A00444541440053435245454E5341
:1052BA00415645520047414D454F5645520041001F
:1052CA004141410A006C0072006F00650079007468
:1052DA00004C00430049004F004D005500000000FB
:1052EA0000DB13CF13F101B113EA01EE0100000054
:0E52FA0000511EA41FA31DBD1DAF1D2F1E00C1
:00000001FF
